{"abi":[{"type":"constructor","inputs":[],"stateMutability":"nonpayable"},{"type":"function","name":"UPGRADE_INTERFACE_VERSION","inputs":[],"outputs":[{"name":"","type":"string","internalType":"string"}],"stateMutability":"view"},{"type":"function","name":"dauphineToken","inputs":[],"outputs":[{"name":"","type":"address","internalType":"contract IERC20"}],"stateMutability":"view"},{"type":"function","name":"getFlips","inputs":[],"outputs":[{"name":"","type":"uint8[10]","internalType":"uint8[10]"}],"stateMutability":"view"},{"type":"function","name":"initialize","inputs":[{"name":"initialOwner","type":"address","internalType":"address"},{"name":"tokenAddress","type":"address","internalType":"address"}],"outputs":[],"stateMutability":"nonpayable"},{"type":"function","name":"owner","inputs":[],"outputs":[{"name":"","type":"address","internalType":"address"}],"stateMutability":"view"},{"type":"function","name":"proxiableUUID","inputs":[],"outputs":[{"name":"","type":"bytes32","internalType":"bytes32"}],"stateMutability":"view"},{"type":"function","name":"renounceOwnership","inputs":[],"outputs":[],"stateMutability":"nonpayable"},{"type":"function","name":"seed","inputs":[],"outputs":[{"name":"","type":"string","internalType":"string"}],"stateMutability":"view"},{"type":"function","name":"seedRotation","inputs":[{"name":"NewSeed","type":"string","internalType":"string"},{"name":"rotations","type":"uint256","internalType":"uint256"}],"outputs":[],"stateMutability":"nonpayable"},{"type":"function","name":"transferOwnership","inputs":[{"name":"newOwner","type":"address","internalType":"address"}],"outputs":[],"stateMutability":"nonpayable"},{"type":"function","name":"upgradeToAndCall","inputs":[{"name":"newImplementation","type":"address","internalType":"address"},{"name":"data","type":"bytes","internalType":"bytes"}],"outputs":[],"stateMutability":"payable"},{"type":"function","name":"userInput","inputs":[{"name":"Guesses","type":"uint8[10]","internalType":"uint8[10]"},{"name":"winner","type":"address","internalType":"address"}],"outputs":[{"name":"","type":"bool","internalType":"bool"}],"stateMutability":"nonpayable"},{"type":"event","name":"Initialized","inputs":[{"name":"version","type":"uint64","indexed":false,"internalType":"uint64"}],"anonymous":false},{"type":"event","name":"OwnershipTransferred","inputs":[{"name":"previousOwner","type":"address","indexed":true,"internalType":"address"},{"name":"newOwner","type":"address","indexed":true,"internalType":"address"}],"anonymous":false},{"type":"event","name":"Upgraded","inputs":[{"name":"implementation","type":"address","indexed":true,"internalType":"address"}],"anonymous":false},{"type":"error","name":"AddressEmptyCode","inputs":[{"name":"target","type":"address","internalType":"address"}]},{"type":"error","name":"ERC1967InvalidImplementation","inputs":[{"name":"implementation","type":"address","internalType":"address"}]},{"type":"error","name":"ERC1967NonPayable","inputs":[]},{"type":"error","name":"FailedCall","inputs":[]},{"type":"error","name":"InvalidInitialization","inputs":[]},{"type":"error","name":"NotInitializing","inputs":[]},{"type":"error","name":"OwnableInvalidOwner","inputs":[{"name":"owner","type":"address","internalType":"address"}]},{"type":"error","name":"OwnableUnauthorizedAccount","inputs":[{"name":"account","type":"address","internalType":"address"}]},{"type":"error","name":"SeedTooShort","inputs":[]},{"type":"error","name":"UUPSUnauthorizedCallContext","inputs":[]},{"type":"error","name":"UUPSUnsupportedProxiableUUID","inputs":[{"name":"slot","type":"bytes32","internalType":"bytes32"}]}],"bytecode":{"object":"0x60a060405230608052348015610013575f5ffd5b5061001c610021565b6100d3565b7ff0c57e16840df040f15088dc2f81fe391c3923bec73e23a9662efc9c229c6a00805468010000000000000000900460ff16156100715760405163f92ee8a960e01b815260040160405180910390fd5b80546001600160401b03908116146100d05780546001600160401b0319166001600160401b0390811782556040519081527fc7f505b2f371ae2175ee4913f4499e1f2633a7b5936321eed1cdaeb6115181d29060200160405180910390a15b50565b60805161125b6100f95f395f81816108c3015281816108ec0152610a30015261125b5ff3fe6080604052600436106100a5575f3560e01c80637d94792a116100625780637d94792a146101585780638448fc33146101795780638da5cb5b146101a8578063ad3cb1cc146101f8578063bbf2564014610228578063f2fde38b14610247575f5ffd5b80631f3c34b6146100a9578063485cc955146100ca5780634f1ef286146100e957806352d1902d146100fc5780635ff7a0bd14610123578063715018a614610144575b5f5ffd5b3480156100b4575f5ffd5b506100c86100c3366004610e0e565b610266565b005b3480156100d5575f5ffd5b506100c86100e4366004610e7e565b6103c1565b6100c86100f7366004610eaf565b610518565b348015610107575f5ffd5b50610110610537565b6040519081526020015b60405180910390f35b34801561012e575f5ffd5b50610137610552565b60405161011a9190610f0d565b34801561014f575f5ffd5b506100c86106de565b348015610163575f5ffd5b5061016c6106f1565b60405161011a9190610f41565b348015610184575f5ffd5b50610198610193366004610f76565b61077c565b604051901515815260200161011a565b3480156101b3575f5ffd5b507f9016d09d72d40fdae2fd8ceac6b6234c7706214fd39c1cd1e609a0528c199300546001600160a01b03165b6040516001600160a01b03909116815260200161011a565b348015610203575f5ffd5b5061016c604051806040016040528060058152602001640352e302e360dc1b81525081565b348015610233575f5ffd5b506001546101e0906001600160a01b031681565b348015610252575f5ffd5b506100c8610261366004610fa5565b610802565b61026e610844565b81518290600a8110156102945760405163cde2a69360e01b815260040160405180910390fd5b5f5b838110156103ae575f835f815181106102b1576102b1610fbe565b01602001516001600160f81b03191690505f8367ffffffffffffffff8111156102dc576102dc610d83565b6040519080825280601f01601f191660200182016040528015610306576020820181803683370190505b50905060015b8481101561036f5785818151811061032657610326610fbe565b01602001516001600160f81b03191682610341600184610fe6565b8151811061035157610351610fbe565b60200101906001600160f81b03191690815f1a90535060010161030c565b50818161037d600187610fe6565b8151811061038d5761038d610fbe565b60200101906001600160f81b03191690815f1a905350935050600101610296565b505f6103ba8382611075565b5050505050565b7ff0c57e16840df040f15088dc2f81fe391c3923bec73e23a9662efc9c229c6a008054600160401b810460ff16159067ffffffffffffffff165f811580156104065750825b90505f8267ffffffffffffffff1660011480156104225750303b155b905081158015610430575080155b1561044e5760405163f92ee8a960e01b815260040160405180910390fd5b845467ffffffffffffffff19166001178555831561047857845460ff60401b1916600160401b1785555b6104818761089f565b6104896108b0565b600180546001600160a01b0319166001600160a01b038816179055604080516060810190915260378082526111ef60208301395f906104c89082611075565b50831561050f57845460ff60401b19168555604051600181527fc7f505b2f371ae2175ee4913f4499e1f2633a7b5936321eed1cdaeb6115181d29060200160405180910390a15b50505050505050565b6105206108b8565b6105298261095c565b6105338282610964565b5050565b5f610540610a25565b505f5160206111cf5f395f51905f5290565b61055a610d64565b5f5f805461056790610ff9565b80601f016020809104026020016040519081016040528092919081815260200182805461059390610ff9565b80156105de5780601f106105b5576101008083540402835291602001916105de565b820191905f5260205f20905b8154815290600101906020018083116105c157829003601f168201915b505050505090505f815190506105f2610d64565b5f6105fe600a84611144565b90505f5b600a8110156106d4575f856106178484611157565b8151811061062757610627610fbe565b602001015160f81c60f81b426040516020016106599291906001600160f81b0319929092168252602082015260400190565b60408051601f198184030181529190528051602090910120905061067e60028261116e565b5f036106aa5760018483600a811061069857610698610fbe565b60ff90921660209290920201526106cb565b5f8483600a81106106bd576106bd610fbe565b60ff90921660209290920201525b50600101610602565b5090949350505050565b6106e6610844565b6106ef5f610a6e565b565b5f80546106fd90610ff9565b80601f016020809104026020016040519081016040528092919081815260200182805461072990610ff9565b80156107745780601f1061074b57610100808354040283529160200191610774565b820191905f5260205f20905b81548152906001019060200180831161075757829003601f168201915b505050505081565b5f5f610786610552565b90505f5b600a8110156107ec578181600a81106107a5576107a5610fbe565b602002015160ff168582600a81106107bf576107bf610fbe565b6020020160208101906107d29190611181565b60ff16146107e4575f925050506107fc565b60010161078a565b506107f683610ade565b60019150505b92915050565b61080a610844565b6001600160a01b03811661083857604051631e4fbdf760e01b81525f60048201526024015b60405180910390fd5b61084181610a6e565b50565b336108767f9016d09d72d40fdae2fd8ceac6b6234c7706214fd39c1cd1e609a0528c199300546001600160a01b031690565b6001600160a01b0316146106ef5760405163118cdaa760e01b815233600482015260240161082f565b6108a7610b42565b61084181610b8b565b6106ef610b42565b306001600160a01b037f000000000000000000000000000000000000000000000000000000000000000016148061093e57507f00000000000000000000000000000000000000000000000000000000000000006001600160a01b03166109325f5160206111cf5f395f51905f52546001600160a01b031690565b6001600160a01b031614155b156106ef5760405163703e46dd60e11b815260040160405180910390fd5b610841610844565b816001600160a01b03166352d1902d6040518163ffffffff1660e01b8152600401602060405180830381865afa9250505080156109be575060408051601f3d908101601f191682019092526109bb918101906111a1565b60015b6109e657604051634c9c8ce360e01b81526001600160a01b038316600482015260240161082f565b5f5160206111cf5f395f51905f528114610a1657604051632a87526960e21b81526004810182905260240161082f565b610a208383610b93565b505050565b306001600160a01b037f000000000000000000000000000000000000000000000000000000000000000016146106ef5760405163703e46dd60e11b815260040160405180910390fd5b7f9016d09d72d40fdae2fd8ceac6b6234c7706214fd39c1cd1e609a0528c19930080546001600160a01b031981166001600160a01b03848116918217845560405192169182907f8be0079c531659141344cd1fd0a4f28419497f9722a3daafe3b4186f6b6457e0905f90a3505050565b6001546040516340c10f1960e01b81526001600160a01b038381166004830152674563918244f400006024830152909116906340c10f19906044015f604051808303815f87803b158015610b30575f5ffd5b505af11580156103ba573d5f5f3e3d5ffd5b7ff0c57e16840df040f15088dc2f81fe391c3923bec73e23a9662efc9c229c6a0054600160401b900460ff166106ef57604051631afcd79f60e31b815260040160405180910390fd5b61080a610b42565b610b9c82610be8565b6040516001600160a01b038316907fbc7cd75a20ee27fd9adebab32041f755214dbc6bffa90cc0225b39da2e5c2d3b905f90a2805115610be057610a208282610c4b565b610533610cbd565b806001600160a01b03163b5f03610c1d57604051634c9c8ce360e01b81526001600160a01b038216600482015260240161082f565b5f5160206111cf5f395f51905f5280546001600160a01b0319166001600160a01b0392909216919091179055565b60605f5f846001600160a01b031684604051610c6791906111b8565b5f60405180830381855af49150503d805f8114610c9f576040519150601f19603f3d011682016040523d82523d5f602084013e610ca4565b606091505b5091509150610cb4858383610cdc565b95945050505050565b34156106ef5760405163b398979f60e01b815260040160405180910390fd5b606082610cf157610cec82610d3b565b610d34565b8151158015610d0857506001600160a01b0384163b155b15610d3157604051639996b31560e01b81526001600160a01b038516600482015260240161082f565b50805b9392505050565b805115610d4b5780518082602001fd5b60405163d6bda27560e01b815260040160405180910390fd5b604051806101400160405280600a906020820280368337509192915050565b634e487b7160e01b5f52604160045260245ffd5b5f5f67ffffffffffffffff841115610db157610db1610d83565b50604051601f19601f85018116603f0116810181811067ffffffffffffffff82111715610de057610de0610d83565b604052838152905080828401851015610df7575f5ffd5b838360208301375f60208583010152509392505050565b5f5f60408385031215610e1f575f5ffd5b823567ffffffffffffffff811115610e35575f5ffd5b8301601f81018513610e45575f5ffd5b610e5485823560208401610d97565b95602094909401359450505050565b80356001600160a01b0381168114610e79575f5ffd5b919050565b5f5f60408385031215610e8f575f5ffd5b610e9883610e63565b9150610ea660208401610e63565b90509250929050565b5f5f60408385031215610ec0575f5ffd5b610ec983610e63565b9150602083013567ffffffffffffffff811115610ee4575f5ffd5b8301601f81018513610ef4575f5ffd5b610f0385823560208401610d97565b9150509250929050565b610140810181835f5b600a811015610f3857815160ff16835260209283019290910190600101610f16565b50505092915050565b602081525f82518060208401528060208501604085015e5f604082850101526040601f19601f83011684010191505092915050565b5f5f6101608385031215610f88575f5ffd5b610140830184811115610f99575f5ffd5b839250610f0381610e63565b5f60208284031215610fb5575f5ffd5b610d3482610e63565b634e487b7160e01b5f52603260045260245ffd5b634e487b7160e01b5f52601160045260245ffd5b818103818111156107fc576107fc610fd2565b600181811c9082168061100d57607f821691505b60208210810361102b57634e487b7160e01b5f52602260045260245ffd5b50919050565b601f821115610a2057805f5260205f20601f840160051c810160208510156110565750805b601f840160051c820191505b818110156103ba575f8155600101611062565b815167ffffffffffffffff81111561108f5761108f610d83565b6110a38161109d8454610ff9565b84611031565b6020601f8211600181146110d5575f83156110be5750848201515b5f19600385901b1c1916600184901b1784556103ba565b5f84815260208120601f198516915b8281101561110457878501518255602094850194600190920191016110e4565b508482101561112157868401515f19600387901b60f8161c191681555b50505050600190811b01905550565b634e487b7160e01b5f52601260045260245ffd5b5f8261115257611152611130565b500490565b80820281158282048414176107fc576107fc610fd2565b5f8261117c5761117c611130565b500690565b5f60208284031215611191575f5ffd5b813560ff81168114610d34575f5ffd5b5f602082840312156111b1575f5ffd5b5051919050565b5f82518060208501845e5f92019182525091905056fe360894a13ba1a3210667c828492db98dca3e2076cc3735a920a3ca505d382bbc4974206973206120676f6f6420707261637469636520746f20726f74617465207365656473206f6674656e20696e2067616d626c696e67a2646970667358221220641b3d390a89ca2fef71e59edae2f581d2a5e0b9cd973483ddb4dcde32fcec7264736f6c634300081c0033","linkReferences":{}},"methodIdentifiers":{"UPGRADE_INTERFACE_VERSION()":"ad3cb1cc","dauphineToken()":"bbf25640","getFlips()":"5ff7a0bd","initialize(address,address)":"485cc955","owner()":"8da5cb5b","proxiableUUID()":"52d1902d","renounceOwnership()":"715018a6","seed()":"7d94792a","seedRotation(string,uint256)":"1f3c34b6","transferOwnership(address)":"f2fde38b","upgradeToAndCall(address,bytes)":"4f1ef286","userInput(uint8[10],address)":"8448fc33"},"id":31}