{"abi":[{"type":"constructor","inputs":[],"stateMutability":"nonpayable"},{"type":"function","name":"UPGRADE_INTERFACE_VERSION","inputs":[],"outputs":[{"name":"","type":"string","internalType":"string"}],"stateMutability":"view"},{"type":"function","name":"getFlips","inputs":[],"outputs":[{"name":"","type":"uint8[10]","internalType":"uint8[10]"}],"stateMutability":"view"},{"type":"function","name":"initialize","inputs":[{"name":"initialOwner","type":"address","internalType":"address"}],"outputs":[],"stateMutability":"nonpayable"},{"type":"function","name":"owner","inputs":[],"outputs":[{"name":"","type":"address","internalType":"address"}],"stateMutability":"view"},{"type":"function","name":"proxiableUUID","inputs":[],"outputs":[{"name":"","type":"bytes32","internalType":"bytes32"}],"stateMutability":"view"},{"type":"function","name":"renounceOwnership","inputs":[],"outputs":[],"stateMutability":"nonpayable"},{"type":"function","name":"seed","inputs":[],"outputs":[{"name":"","type":"string","internalType":"string"}],"stateMutability":"view"},{"type":"function","name":"seedRotation","inputs":[{"name":"NewSeed","type":"string","internalType":"string"},{"name":"rotations","type":"uint256","internalType":"uint256"}],"outputs":[],"stateMutability":"nonpayable"},{"type":"function","name":"transferOwnership","inputs":[{"name":"newOwner","type":"address","internalType":"address"}],"outputs":[],"stateMutability":"nonpayable"},{"type":"function","name":"upgradeToAndCall","inputs":[{"name":"newImplementation","type":"address","internalType":"address"},{"name":"data","type":"bytes","internalType":"bytes"}],"outputs":[],"stateMutability":"payable"},{"type":"function","name":"userInput","inputs":[{"name":"Guesses","type":"uint8[10]","internalType":"uint8[10]"}],"outputs":[{"name":"","type":"bool","internalType":"bool"}],"stateMutability":"view"},{"type":"event","name":"Initialized","inputs":[{"name":"version","type":"uint64","indexed":false,"internalType":"uint64"}],"anonymous":false},{"type":"event","name":"OwnershipTransferred","inputs":[{"name":"previousOwner","type":"address","indexed":true,"internalType":"address"},{"name":"newOwner","type":"address","indexed":true,"internalType":"address"}],"anonymous":false},{"type":"event","name":"Upgraded","inputs":[{"name":"implementation","type":"address","indexed":true,"internalType":"address"}],"anonymous":false},{"type":"error","name":"AddressEmptyCode","inputs":[{"name":"target","type":"address","internalType":"address"}]},{"type":"error","name":"ERC1967InvalidImplementation","inputs":[{"name":"implementation","type":"address","internalType":"address"}]},{"type":"error","name":"ERC1967NonPayable","inputs":[]},{"type":"error","name":"FailedCall","inputs":[]},{"type":"error","name":"InvalidInitialization","inputs":[]},{"type":"error","name":"NotInitializing","inputs":[]},{"type":"error","name":"OwnableInvalidOwner","inputs":[{"name":"owner","type":"address","internalType":"address"}]},{"type":"error","name":"OwnableUnauthorizedAccount","inputs":[{"name":"account","type":"address","internalType":"address"}]},{"type":"error","name":"SeedTooShort","inputs":[]},{"type":"error","name":"UUPSUnauthorizedCallContext","inputs":[]},{"type":"error","name":"UUPSUnsupportedProxiableUUID","inputs":[{"name":"slot","type":"bytes32","internalType":"bytes32"}]}],"bytecode":{"object":"0x60a060405230608052348015610013575f5ffd5b5061001c610021565b6100d3565b7ff0c57e16840df040f15088dc2f81fe391c3923bec73e23a9662efc9c229c6a00805468010000000000000000900460ff16156100715760405163f92ee8a960e01b815260040160405180910390fd5b80546001600160401b03908116146100d05780546001600160401b0319166001600160401b0390811782556040519081527fc7f505b2f371ae2175ee4913f4499e1f2633a7b5936321eed1cdaeb6115181d29060200160405180910390a15b50565b60805161115e6100f95f395f818161084e0152818161087701526109bb015261115e5ff3fe60806040526004361061009a575f3560e01c80637d94792a116100625780637d94792a1461012e5780638da5cb5b1461014f578063ad3cb1cc14610195578063c4d66de8146101c5578063ddabf9b2146101e4578063f2fde38b14610213575f5ffd5b80631f3c34b61461009e5780634f1ef286146100bf57806352d1902d146100d25780635ff7a0bd146100f9578063715018a61461011a575b5f5ffd5b3480156100a9575f5ffd5b506100bd6100b8366004610d50565b610232565b005b6100bd6100cd366004610dc0565b61038d565b3480156100dd575f5ffd5b506100e66103ac565b6040519081526020015b60405180910390f35b348015610104575f5ffd5b5061010d6103c7565b6040516100f09190610e1e565b348015610125575f5ffd5b506100bd610553565b348015610139575f5ffd5b50610142610566565b6040516100f09190610e52565b34801561015a575f5ffd5b507f9016d09d72d40fdae2fd8ceac6b6234c7706214fd39c1cd1e609a0528c199300546040516001600160a01b0390911681526020016100f0565b3480156101a0575f5ffd5b50610142604051806040016040528060058152602001640352e302e360dc1b81525081565b3480156101d0575f5ffd5b506100bd6101df366004610e87565b6105f1565b3480156101ef575f5ffd5b506102036101fe366004610ea0565b61072d565b60405190151581526020016100f0565b34801561021e575f5ffd5b506100bd61022d366004610e87565b6107a6565b61023a6107e8565b81518290600a8110156102605760405163cde2a69360e01b815260040160405180910390fd5b5f5b8381101561037a575f835f8151811061027d5761027d610ec7565b01602001516001600160f81b03191690505f8367ffffffffffffffff8111156102a8576102a8610cc5565b6040519080825280601f01601f1916602001820160405280156102d2576020820181803683370190505b50905060015b8481101561033b578581815181106102f2576102f2610ec7565b01602001516001600160f81b0319168261030d600184610eef565b8151811061031d5761031d610ec7565b60200101906001600160f81b03191690815f1a9053506001016102d8565b508181610349600187610eef565b8151811061035957610359610ec7565b60200101906001600160f81b03191690815f1a905350935050600101610262565b505f6103868382610f78565b5050505050565b610395610843565b61039e826108e7565b6103a882826108ef565b5050565b5f6103b56109b0565b505f5160206110d25f395f51905f5290565b6103cf610ca6565b5f5f80546103dc90610f02565b80601f016020809104026020016040519081016040528092919081815260200182805461040890610f02565b80156104535780601f1061042a57610100808354040283529160200191610453565b820191905f5260205f20905b81548152906001019060200180831161043657829003601f168201915b505050505090505f81519050610467610ca6565b5f610473600a84611047565b90505f5b600a811015610549575f8561048c848461105a565b8151811061049c5761049c610ec7565b602001015160f81c60f81b426040516020016104ce9291906001600160f81b0319929092168252602082015260400190565b60408051601f19818403018152919052805160209091012090506104f3600282611071565b5f0361051f5760018483600a811061050d5761050d610ec7565b60ff9092166020929092020152610540565b5f8483600a811061053257610532610ec7565b60ff90921660209290920201525b50600101610477565b5090949350505050565b61055b6107e8565b6105645f6109f9565b565b5f805461057290610f02565b80601f016020809104026020016040519081016040528092919081815260200182805461059e90610f02565b80156105e95780601f106105c0576101008083540402835291602001916105e9565b820191905f5260205f20905b8154815290600101906020018083116105cc57829003601f168201915b505050505081565b7ff0c57e16840df040f15088dc2f81fe391c3923bec73e23a9662efc9c229c6a008054600160401b810460ff16159067ffffffffffffffff165f811580156106365750825b90505f8267ffffffffffffffff1660011480156106525750303b155b905081158015610660575080155b1561067e5760405163f92ee8a960e01b815260040160405180910390fd5b845467ffffffffffffffff1916600117855583156106a857845460ff60401b1916600160401b1785555b6106b186610a69565b6106b9610a7a565b6040518060600160405280603781526020016110f2603791395f906106de9082610f78565b50831561072557845460ff60401b19168555604051600181527fc7f505b2f371ae2175ee4913f4499e1f2633a7b5936321eed1cdaeb6115181d29060200160405180910390a15b505050505050565b5f5f6107376103c7565b90505f5b600a81101561079c578181600a811061075657610756610ec7565b602002015160ff168482600a811061077057610770610ec7565b6020020160208101906107839190611084565b60ff161461079457505f9392505050565b60010161073b565b5060019392505050565b6107ae6107e8565b6001600160a01b0381166107dc57604051631e4fbdf760e01b81525f60048201526024015b60405180910390fd5b6107e5816109f9565b50565b3361081a7f9016d09d72d40fdae2fd8ceac6b6234c7706214fd39c1cd1e609a0528c199300546001600160a01b031690565b6001600160a01b0316146105645760405163118cdaa760e01b81523360048201526024016107d3565b306001600160a01b037f00000000000000000000000000000000000000000000000000000000000000001614806108c957507f00000000000000000000000000000000000000000000000000000000000000006001600160a01b03166108bd5f5160206110d25f395f51905f52546001600160a01b031690565b6001600160a01b031614155b156105645760405163703e46dd60e11b815260040160405180910390fd5b6107e56107e8565b816001600160a01b03166352d1902d6040518163ffffffff1660e01b8152600401602060405180830381865afa925050508015610949575060408051601f3d908101601f19168201909252610946918101906110a4565b60015b61097157604051634c9c8ce360e01b81526001600160a01b03831660048201526024016107d3565b5f5160206110d25f395f51905f5281146109a157604051632a87526960e21b8152600481018290526024016107d3565b6109ab8383610a82565b505050565b306001600160a01b037f000000000000000000000000000000000000000000000000000000000000000016146105645760405163703e46dd60e11b815260040160405180910390fd5b7f9016d09d72d40fdae2fd8ceac6b6234c7706214fd39c1cd1e609a0528c19930080546001600160a01b031981166001600160a01b03848116918217845560405192169182907f8be0079c531659141344cd1fd0a4f28419497f9722a3daafe3b4186f6b6457e0905f90a3505050565b610a71610ad7565b6107e581610b20565b610564610ad7565b610a8b82610b28565b6040516001600160a01b038316907fbc7cd75a20ee27fd9adebab32041f755214dbc6bffa90cc0225b39da2e5c2d3b905f90a2805115610acf576109ab8282610b8b565b6103a8610bff565b7ff0c57e16840df040f15088dc2f81fe391c3923bec73e23a9662efc9c229c6a0054600160401b900460ff1661056457604051631afcd79f60e31b815260040160405180910390fd5b6107ae610ad7565b806001600160a01b03163b5f03610b5d57604051634c9c8ce360e01b81526001600160a01b03821660048201526024016107d3565b5f5160206110d25f395f51905f5280546001600160a01b0319166001600160a01b0392909216919091179055565b60605f5f846001600160a01b031684604051610ba791906110bb565b5f60405180830381855af49150503d805f8114610bdf576040519150601f19603f3d011682016040523d82523d5f602084013e610be4565b606091505b5091509150610bf4858383610c1e565b925050505b92915050565b34156105645760405163b398979f60e01b815260040160405180910390fd5b606082610c3357610c2e82610c7d565b610c76565b8151158015610c4a57506001600160a01b0384163b155b15610c7357604051639996b31560e01b81526001600160a01b03851660048201526024016107d3565b50805b9392505050565b805115610c8d5780518082602001fd5b60405163d6bda27560e01b815260040160405180910390fd5b604051806101400160405280600a906020820280368337509192915050565b634e487b7160e01b5f52604160045260245ffd5b5f5f67ffffffffffffffff841115610cf357610cf3610cc5565b50604051601f19601f85018116603f0116810181811067ffffffffffffffff82111715610d2257610d22610cc5565b604052838152905080828401851015610d39575f5ffd5b838360208301375f60208583010152509392505050565b5f5f60408385031215610d61575f5ffd5b823567ffffffffffffffff811115610d77575f5ffd5b8301601f81018513610d87575f5ffd5b610d9685823560208401610cd9565b95602094909401359450505050565b80356001600160a01b0381168114610dbb575f5ffd5b919050565b5f5f60408385031215610dd1575f5ffd5b610dda83610da5565b9150602083013567ffffffffffffffff811115610df5575f5ffd5b8301601f81018513610e05575f5ffd5b610e1485823560208401610cd9565b9150509250929050565b610140810181835f5b600a811015610e4957815160ff16835260209283019290910190600101610e27565b50505092915050565b602081525f82518060208401528060208501604085015e5f604082850101526040601f19601f83011684010191505092915050565b5f60208284031215610e97575f5ffd5b610c7682610da5565b5f6101408284031215610eb1575f5ffd5b8261014083011115610ec1575f5ffd5b50919050565b634e487b7160e01b5f52603260045260245ffd5b634e487b7160e01b5f52601160045260245ffd5b81810381811115610bf957610bf9610edb565b600181811c90821680610f1657607f821691505b602082108103610ec157634e487b7160e01b5f52602260045260245ffd5b601f8211156109ab57805f5260205f20601f840160051c81016020851015610f595750805b601f840160051c820191505b81811015610386575f8155600101610f65565b815167ffffffffffffffff811115610f9257610f92610cc5565b610fa681610fa08454610f02565b84610f34565b6020601f821160018114610fd8575f8315610fc15750848201515b5f19600385901b1c1916600184901b178455610386565b5f84815260208120601f198516915b828110156110075787850151825560209485019460019092019101610fe7565b508482101561102457868401515f19600387901b60f8161c191681555b50505050600190811b01905550565b634e487b7160e01b5f52601260045260245ffd5b5f8261105557611055611033565b500490565b8082028115828204841417610bf957610bf9610edb565b5f8261107f5761107f611033565b500690565b5f60208284031215611094575f5ffd5b813560ff81168114610c76575f5ffd5b5f602082840312156110b4575f5ffd5b5051919050565b5f82518060208501845e5f92019182525091905056fe360894a13ba1a3210667c828492db98dca3e2076cc3735a920a3ca505d382bbc4974206973206120676f6f6420707261637469636520746f20726f74617465207365656473206f6674656e20696e2067616d626c696e67a26469706673582212202cffa05f613c730a5efd4b8a9a138ef5406c80f9d856a1433eac8f4ca6532ea264736f6c634300081c0033","linkReferences":{}},"methodIdentifiers":{"UPGRADE_INTERFACE_VERSION()":"ad3cb1cc","getFlips()":"5ff7a0bd","initialize(address)":"c4d66de8","owner()":"8da5cb5b","proxiableUUID()":"52d1902d","renounceOwnership()":"715018a6","seed()":"7d94792a","seedRotation(string,uint256)":"1f3c34b6","transferOwnership(address)":"f2fde38b","upgradeToAndCall(address,bytes)":"4f1ef286","userInput(uint8[10])":"ddabf9b2"},"id":32}