{"abi":[{"type":"constructor","inputs":[],"stateMutability":"nonpayable"},{"type":"function","name":"UPGRADE_INTERFACE_VERSION","inputs":[],"outputs":[{"name":"","type":"string","internalType":"string"}],"stateMutability":"view"},{"type":"function","name":"dauphineToken","inputs":[],"outputs":[{"name":"","type":"address","internalType":"contract IERC20"}],"stateMutability":"view"},{"type":"function","name":"getFlips","inputs":[],"outputs":[{"name":"","type":"uint8[10]","internalType":"uint8[10]"}],"stateMutability":"view"},{"type":"function","name":"initialize","inputs":[{"name":"initialOwner","type":"address","internalType":"address"},{"name":"tokenAddress","type":"address","internalType":"address"}],"outputs":[],"stateMutability":"nonpayable"},{"type":"function","name":"owner","inputs":[],"outputs":[{"name":"","type":"address","internalType":"address"}],"stateMutability":"view"},{"type":"function","name":"proxiableUUID","inputs":[],"outputs":[{"name":"","type":"bytes32","internalType":"bytes32"}],"stateMutability":"view"},{"type":"function","name":"renounceOwnership","inputs":[],"outputs":[],"stateMutability":"nonpayable"},{"type":"function","name":"seed","inputs":[],"outputs":[{"name":"","type":"string","internalType":"string"}],"stateMutability":"view"},{"type":"function","name":"seedRotation","inputs":[{"name":"NewSeed","type":"string","internalType":"string"}],"outputs":[],"stateMutability":"nonpayable"},{"type":"function","name":"transferOwnership","inputs":[{"name":"newOwner","type":"address","internalType":"address"}],"outputs":[],"stateMutability":"nonpayable"},{"type":"function","name":"upgradeToAndCall","inputs":[{"name":"newImplementation","type":"address","internalType":"address"},{"name":"data","type":"bytes","internalType":"bytes"}],"outputs":[],"stateMutability":"payable"},{"type":"function","name":"userInput","inputs":[{"name":"Guesses","type":"uint8[10]","internalType":"uint8[10]"},{"name":"winner","type":"address","internalType":"address"}],"outputs":[{"name":"","type":"bool","internalType":"bool"}],"stateMutability":"nonpayable"},{"type":"event","name":"Initialized","inputs":[{"name":"version","type":"uint64","indexed":false,"internalType":"uint64"}],"anonymous":false},{"type":"event","name":"OwnershipTransferred","inputs":[{"name":"previousOwner","type":"address","indexed":true,"internalType":"address"},{"name":"newOwner","type":"address","indexed":true,"internalType":"address"}],"anonymous":false},{"type":"event","name":"Upgraded","inputs":[{"name":"implementation","type":"address","indexed":true,"internalType":"address"}],"anonymous":false},{"type":"error","name":"AddressEmptyCode","inputs":[{"name":"target","type":"address","internalType":"address"}]},{"type":"error","name":"ERC1967InvalidImplementation","inputs":[{"name":"implementation","type":"address","internalType":"address"}]},{"type":"error","name":"ERC1967NonPayable","inputs":[]},{"type":"error","name":"FailedCall","inputs":[]},{"type":"error","name":"InvalidInitialization","inputs":[]},{"type":"error","name":"NotInitializing","inputs":[]},{"type":"error","name":"OwnableInvalidOwner","inputs":[{"name":"owner","type":"address","internalType":"address"}]},{"type":"error","name":"OwnableUnauthorizedAccount","inputs":[{"name":"account","type":"address","internalType":"address"}]},{"type":"error","name":"SeedTooShort","inputs":[]},{"type":"error","name":"UUPSUnauthorizedCallContext","inputs":[]},{"type":"error","name":"UUPSUnsupportedProxiableUUID","inputs":[{"name":"slot","type":"bytes32","internalType":"bytes32"}]}],"bytecode":{"object":"0x60a060405230608052348015610013575f5ffd5b5061001c610021565b6100d3565b7ff0c57e16840df040f15088dc2f81fe391c3923bec73e23a9662efc9c229c6a00805468010000000000000000900460ff16156100715760405163f92ee8a960e01b815260040160405180910390fd5b80546001600160401b03908116146100d05780546001600160401b0319166001600160401b0390811782556040519081527fc7f505b2f371ae2175ee4913f4499e1f2633a7b5936321eed1cdaeb6115181d29060200160405180910390a15b50565b6080516111236100f95f395f81816107a7015281816107d0015261091401526111235ff3fe6080604052600436106100a5575f3560e01c80637d94792a116100625780637d94792a146101585780638448fc33146101795780638da5cb5b146101a8578063ad3cb1cc146101f8578063bbf2564014610228578063f2fde38b14610247575f5ffd5b806327236822146100a9578063485cc955146100ca5780634f1ef286146100e957806352d1902d146100fc5780635ff7a0bd14610123578063715018a614610144575b5f5ffd5b3480156100b4575f5ffd5b506100c86100c3366004610cf9565b610266565b005b3480156100d5575f5ffd5b506100c86100e4366004610d61565b6102a5565b6100c86100f7366004610d92565b6103fc565b348015610107575f5ffd5b5061011061041b565b6040519081526020015b60405180910390f35b34801561012e575f5ffd5b50610137610436565b60405161011a9190610df0565b34801561014f575f5ffd5b506100c86105c2565b348015610163575f5ffd5b5061016c6105d5565b60405161011a9190610e24565b348015610184575f5ffd5b50610198610193366004610e59565b610660565b604051901515815260200161011a565b3480156101b3575f5ffd5b507f9016d09d72d40fdae2fd8ceac6b6234c7706214fd39c1cd1e609a0528c199300546001600160a01b03165b6040516001600160a01b03909116815260200161011a565b348015610203575f5ffd5b5061016c604051806040016040528060058152602001640352e302e360dc1b81525081565b348015610233575f5ffd5b506001546101e0906001600160a01b031681565b348015610252575f5ffd5b506100c8610261366004610e88565b6106e6565b61026e610728565b80518190600a8110156102945760405163cde2a69360e01b815260040160405180910390fd5b5f61029f8482610f1d565b50505050565b7ff0c57e16840df040f15088dc2f81fe391c3923bec73e23a9662efc9c229c6a008054600160401b810460ff16159067ffffffffffffffff165f811580156102ea5750825b90505f8267ffffffffffffffff1660011480156103065750303b155b905081158015610314575080155b156103325760405163f92ee8a960e01b815260040160405180910390fd5b845467ffffffffffffffff19166001178555831561035c57845460ff60401b1916600160401b1785555b61036587610783565b61036d610794565b600180546001600160a01b0319166001600160a01b038816179055604080516060810190915260378082526110b760208301395f906103ac9082610f1d565b5083156103f357845460ff60401b19168555604051600181527fc7f505b2f371ae2175ee4913f4499e1f2633a7b5936321eed1cdaeb6115181d29060200160405180910390a15b50505050505050565b61040461079c565b61040d82610840565b6104178282610848565b5050565b5f610424610909565b505f5160206110975f395f51905f5290565b61043e610c4f565b5f5f805461044b90610ea1565b80601f016020809104026020016040519081016040528092919081815260200182805461047790610ea1565b80156104c25780601f10610499576101008083540402835291602001916104c2565b820191905f5260205f20905b8154815290600101906020018083116104a557829003601f168201915b505050505090505f815190506104d6610c4f565b5f6104e2600a84610fec565b90505f5b600a8110156105b8575f856104fb8484610fff565b8151811061050b5761050b611022565b602001015160f81c60f81b4260405160200161053d9291906001600160f81b0319929092168252602082015260400190565b60408051601f1981840301815291905280516020909101209050610562600282611036565b5f0361058e5760018483600a811061057c5761057c611022565b60ff90921660209290920201526105af565b5f8483600a81106105a1576105a1611022565b60ff90921660209290920201525b506001016104e6565b5090949350505050565b6105ca610728565b6105d35f610952565b565b5f80546105e190610ea1565b80601f016020809104026020016040519081016040528092919081815260200182805461060d90610ea1565b80156106585780601f1061062f57610100808354040283529160200191610658565b820191905f5260205f20905b81548152906001019060200180831161063b57829003601f168201915b505050505081565b5f5f61066a610436565b90505f5b600a8110156106d0578181600a811061068957610689611022565b602002015160ff168582600a81106106a3576106a3611022565b6020020160208101906106b69190611049565b60ff16146106c8575f925050506106e0565b60010161066e565b506106da836109c2565b60019150505b92915050565b6106ee610728565b6001600160a01b03811661071c57604051631e4fbdf760e01b81525f60048201526024015b60405180910390fd5b61072581610952565b50565b3361075a7f9016d09d72d40fdae2fd8ceac6b6234c7706214fd39c1cd1e609a0528c199300546001600160a01b031690565b6001600160a01b0316146105d35760405163118cdaa760e01b8152336004820152602401610713565b61078b610a2d565b61072581610a76565b6105d3610a2d565b306001600160a01b037f000000000000000000000000000000000000000000000000000000000000000016148061082257507f00000000000000000000000000000000000000000000000000000000000000006001600160a01b03166108165f5160206110975f395f51905f52546001600160a01b031690565b6001600160a01b031614155b156105d35760405163703e46dd60e11b815260040160405180910390fd5b610725610728565b816001600160a01b03166352d1902d6040518163ffffffff1660e01b8152600401602060405180830381865afa9250505080156108a2575060408051601f3d908101601f1916820190925261089f91810190611069565b60015b6108ca57604051634c9c8ce360e01b81526001600160a01b0383166004820152602401610713565b5f5160206110975f395f51905f5281146108fa57604051632a87526960e21b815260048101829052602401610713565b6109048383610a7e565b505050565b306001600160a01b037f000000000000000000000000000000000000000000000000000000000000000016146105d35760405163703e46dd60e11b815260040160405180910390fd5b7f9016d09d72d40fdae2fd8ceac6b6234c7706214fd39c1cd1e609a0528c19930080546001600160a01b031981166001600160a01b03848116918217845560405192169182907f8be0079c531659141344cd1fd0a4f28419497f9722a3daafe3b4186f6b6457e0905f90a3505050565b6001546040516340c10f1960e01b81526001600160a01b038381166004830152674563918244f400006024830152909116906340c10f19906044015f604051808303815f87803b158015610a14575f5ffd5b505af1158015610a26573d5f5f3e3d5ffd5b5050505050565b7ff0c57e16840df040f15088dc2f81fe391c3923bec73e23a9662efc9c229c6a0054600160401b900460ff166105d357604051631afcd79f60e31b815260040160405180910390fd5b6106ee610a2d565b610a8782610ad3565b6040516001600160a01b038316907fbc7cd75a20ee27fd9adebab32041f755214dbc6bffa90cc0225b39da2e5c2d3b905f90a2805115610acb576109048282610b36565b610417610ba8565b806001600160a01b03163b5f03610b0857604051634c9c8ce360e01b81526001600160a01b0382166004820152602401610713565b5f5160206110975f395f51905f5280546001600160a01b0319166001600160a01b0392909216919091179055565b60605f5f846001600160a01b031684604051610b529190611080565b5f60405180830381855af49150503d805f8114610b8a576040519150601f19603f3d011682016040523d82523d5f602084013e610b8f565b606091505b5091509150610b9f858383610bc7565b95945050505050565b34156105d35760405163b398979f60e01b815260040160405180910390fd5b606082610bdc57610bd782610c26565b610c1f565b8151158015610bf357506001600160a01b0384163b155b15610c1c57604051639996b31560e01b81526001600160a01b0385166004820152602401610713565b50805b9392505050565b805115610c365780518082602001fd5b60405163d6bda27560e01b815260040160405180910390fd5b604051806101400160405280600a906020820280368337509192915050565b634e487b7160e01b5f52604160045260245ffd5b5f5f67ffffffffffffffff841115610c9c57610c9c610c6e565b50604051601f19601f85018116603f0116810181811067ffffffffffffffff82111715610ccb57610ccb610c6e565b604052838152905080828401851015610ce2575f5ffd5b838360208301375f60208583010152509392505050565b5f60208284031215610d09575f5ffd5b813567ffffffffffffffff811115610d1f575f5ffd5b8201601f81018413610d2f575f5ffd5b610d3e84823560208401610c82565b949350505050565b80356001600160a01b0381168114610d5c575f5ffd5b919050565b5f5f60408385031215610d72575f5ffd5b610d7b83610d46565b9150610d8960208401610d46565b90509250929050565b5f5f60408385031215610da3575f5ffd5b610dac83610d46565b9150602083013567ffffffffffffffff811115610dc7575f5ffd5b8301601f81018513610dd7575f5ffd5b610de685823560208401610c82565b9150509250929050565b610140810181835f5b600a811015610e1b57815160ff16835260209283019290910190600101610df9565b50505092915050565b602081525f82518060208401528060208501604085015e5f604082850101526040601f19601f83011684010191505092915050565b5f5f6101608385031215610e6b575f5ffd5b610140830184811115610e7c575f5ffd5b839250610de681610d46565b5f60208284031215610e98575f5ffd5b610c1f82610d46565b600181811c90821680610eb557607f821691505b602082108103610ed357634e487b7160e01b5f52602260045260245ffd5b50919050565b601f82111561090457805f5260205f20601f840160051c81016020851015610efe5750805b601f840160051c820191505b81811015610a26575f8155600101610f0a565b815167ffffffffffffffff811115610f3757610f37610c6e565b610f4b81610f458454610ea1565b84610ed9565b6020601f821160018114610f7d575f8315610f665750848201515b5f19600385901b1c1916600184901b178455610a26565b5f84815260208120601f198516915b82811015610fac5787850151825560209485019460019092019101610f8c565b5084821015610fc957868401515f19600387901b60f8161c191681555b50505050600190811b01905550565b634e487b7160e01b5f52601260045260245ffd5b5f82610ffa57610ffa610fd8565b500490565b80820281158282048414176106e057634e487b7160e01b5f52601160045260245ffd5b634e487b7160e01b5f52603260045260245ffd5b5f8261104457611044610fd8565b500690565b5f60208284031215611059575f5ffd5b813560ff81168114610c1f575f5ffd5b5f60208284031215611079575f5ffd5b5051919050565b5f82518060208501845e5f92019182525091905056fe360894a13ba1a3210667c828492db98dca3e2076cc3735a920a3ca505d382bbc4974206973206120676f6f6420707261637469636520746f20726f74617465207365656473206f6674656e20696e2067616d626c696e67a264697066735822122050d39a3b67d165ec5cdfba63d1cdb1a7317232215315beed1fcb6d20b4056b5164736f6c634300081c0033","linkReferences":{}},"methodIdentifiers":{"UPGRADE_INTERFACE_VERSION()":"ad3cb1cc","dauphineToken()":"bbf25640","getFlips()":"5ff7a0bd","initialize(address,address)":"485cc955","owner()":"8da5cb5b","proxiableUUID()":"52d1902d","renounceOwnership()":"715018a6","seed()":"7d94792a","seedRotation(string)":"27236822","transferOwnership(address)":"f2fde38b","upgradeToAndCall(address,bytes)":"4f1ef286","userInput(uint8[10],address)":"8448fc33"},"id":30}