{"abi":[{"type":"constructor","inputs":[],"stateMutability":"nonpayable"},{"type":"function","name":"UPGRADE_INTERFACE_VERSION","inputs":[],"outputs":[{"name":"","type":"string","internalType":"string"}],"stateMutability":"view"},{"type":"function","name":"getFlips","inputs":[],"outputs":[{"name":"","type":"uint8[10]","internalType":"uint8[10]"}],"stateMutability":"view"},{"type":"function","name":"initialize","inputs":[{"name":"initialOwner","type":"address","internalType":"address"}],"outputs":[],"stateMutability":"nonpayable"},{"type":"function","name":"owner","inputs":[],"outputs":[{"name":"","type":"address","internalType":"address"}],"stateMutability":"view"},{"type":"function","name":"proxiableUUID","inputs":[],"outputs":[{"name":"","type":"bytes32","internalType":"bytes32"}],"stateMutability":"view"},{"type":"function","name":"renounceOwnership","inputs":[],"outputs":[],"stateMutability":"nonpayable"},{"type":"function","name":"seed","inputs":[],"outputs":[{"name":"","type":"string","internalType":"string"}],"stateMutability":"view"},{"type":"function","name":"seedRotation","inputs":[{"name":"NewSeed","type":"string","internalType":"string"}],"outputs":[],"stateMutability":"nonpayable"},{"type":"function","name":"transferOwnership","inputs":[{"name":"newOwner","type":"address","internalType":"address"}],"outputs":[],"stateMutability":"nonpayable"},{"type":"function","name":"upgradeToAndCall","inputs":[{"name":"newImplementation","type":"address","internalType":"address"},{"name":"data","type":"bytes","internalType":"bytes"}],"outputs":[],"stateMutability":"payable"},{"type":"function","name":"userInput","inputs":[{"name":"Guesses","type":"uint8[10]","internalType":"uint8[10]"}],"outputs":[{"name":"","type":"bool","internalType":"bool"}],"stateMutability":"view"},{"type":"event","name":"Initialized","inputs":[{"name":"version","type":"uint64","indexed":false,"internalType":"uint64"}],"anonymous":false},{"type":"event","name":"OwnershipTransferred","inputs":[{"name":"previousOwner","type":"address","indexed":true,"internalType":"address"},{"name":"newOwner","type":"address","indexed":true,"internalType":"address"}],"anonymous":false},{"type":"event","name":"Upgraded","inputs":[{"name":"implementation","type":"address","indexed":true,"internalType":"address"}],"anonymous":false},{"type":"error","name":"AddressEmptyCode","inputs":[{"name":"target","type":"address","internalType":"address"}]},{"type":"error","name":"ERC1967InvalidImplementation","inputs":[{"name":"implementation","type":"address","internalType":"address"}]},{"type":"error","name":"ERC1967NonPayable","inputs":[]},{"type":"error","name":"FailedCall","inputs":[]},{"type":"error","name":"InvalidInitialization","inputs":[]},{"type":"error","name":"NotInitializing","inputs":[]},{"type":"error","name":"OwnableInvalidOwner","inputs":[{"name":"owner","type":"address","internalType":"address"}]},{"type":"error","name":"OwnableUnauthorizedAccount","inputs":[{"name":"account","type":"address","internalType":"address"}]},{"type":"error","name":"SeedTooShort","inputs":[]},{"type":"error","name":"UUPSUnauthorizedCallContext","inputs":[]},{"type":"error","name":"UUPSUnsupportedProxiableUUID","inputs":[{"name":"slot","type":"bytes32","internalType":"bytes32"}]}],"bytecode":{"object":"0x60a060405230608052348015610013575f5ffd5b5061001c610021565b6100d3565b7ff0c57e16840df040f15088dc2f81fe391c3923bec73e23a9662efc9c229c6a00805468010000000000000000900460ff16156100715760405163f92ee8a960e01b815260040160405180910390fd5b80546001600160401b03908116146100d05780546001600160401b0319166001600160401b0390811782556040519081527fc7f505b2f371ae2175ee4913f4499e1f2633a7b5936321eed1cdaeb6115181d29060200160405180910390a15b50565b6080516110266100f95f395f81816107320152818161075b015261089f01526110265ff3fe60806040526004361061009a575f3560e01c80637d94792a116100625780637d94792a1461012e5780638da5cb5b1461014f578063ad3cb1cc14610195578063c4d66de8146101c5578063ddabf9b2146101e4578063f2fde38b14610213575f5ffd5b8063272368221461009e5780634f1ef286146100bf57806352d1902d146100d25780635ff7a0bd146100f9578063715018a61461011a575b5f5ffd5b3480156100a9575f5ffd5b506100bd6100b8366004610c34565b610232565b005b6100bd6100cd366004610c9c565b610271565b3480156100dd575f5ffd5b506100e6610290565b6040519081526020015b60405180910390f35b348015610104575f5ffd5b5061010d6102ab565b6040516100f09190610cfa565b348015610125575f5ffd5b506100bd610437565b348015610139575f5ffd5b5061014261044a565b6040516100f09190610d2e565b34801561015a575f5ffd5b507f9016d09d72d40fdae2fd8ceac6b6234c7706214fd39c1cd1e609a0528c199300546040516001600160a01b0390911681526020016100f0565b3480156101a0575f5ffd5b50610142604051806040016040528060058152602001640352e302e360dc1b81525081565b3480156101d0575f5ffd5b506100bd6101df366004610d63565b6104d5565b3480156101ef575f5ffd5b506102036101fe366004610d7c565b610611565b60405190151581526020016100f0565b34801561021e575f5ffd5b506100bd61022d366004610d63565b61068a565b61023a6106cc565b80518190600a8110156102605760405163cde2a69360e01b815260040160405180910390fd5b5f61026b8482610e20565b50505050565b610279610727565b610282826107cb565b61028c82826107d3565b5050565b5f610299610894565b505f516020610f9a5f395f51905f5290565b6102b3610b8a565b5f5f80546102c090610da3565b80601f01602080910402602001604051908101604052809291908181526020018280546102ec90610da3565b80156103375780601f1061030e57610100808354040283529160200191610337565b820191905f5260205f20905b81548152906001019060200180831161031a57829003601f168201915b505050505090505f8151905061034b610b8a565b5f610357600a84610eef565b90505f5b600a81101561042d575f856103708484610f02565b8151811061038057610380610f25565b602001015160f81c60f81b426040516020016103b29291906001600160f81b0319929092168252602082015260400190565b60408051601f19818403018152919052805160209091012090506103d7600282610f39565b5f036104035760018483600a81106103f1576103f1610f25565b60ff9092166020929092020152610424565b5f8483600a811061041657610416610f25565b60ff90921660209290920201525b5060010161035b565b5090949350505050565b61043f6106cc565b6104485f6108dd565b565b5f805461045690610da3565b80601f016020809104026020016040519081016040528092919081815260200182805461048290610da3565b80156104cd5780601f106104a4576101008083540402835291602001916104cd565b820191905f5260205f20905b8154815290600101906020018083116104b057829003601f168201915b505050505081565b7ff0c57e16840df040f15088dc2f81fe391c3923bec73e23a9662efc9c229c6a008054600160401b810460ff16159067ffffffffffffffff165f8115801561051a5750825b90505f8267ffffffffffffffff1660011480156105365750303b155b905081158015610544575080155b156105625760405163f92ee8a960e01b815260040160405180910390fd5b845467ffffffffffffffff19166001178555831561058c57845460ff60401b1916600160401b1785555b6105958661094d565b61059d61095e565b604051806060016040528060378152602001610fba603791395f906105c29082610e20565b50831561060957845460ff60401b19168555604051600181527fc7f505b2f371ae2175ee4913f4499e1f2633a7b5936321eed1cdaeb6115181d29060200160405180910390a15b505050505050565b5f5f61061b6102ab565b90505f5b600a811015610680578181600a811061063a5761063a610f25565b602002015160ff168482600a811061065457610654610f25565b6020020160208101906106679190610f4c565b60ff161461067857505f9392505050565b60010161061f565b5060019392505050565b6106926106cc565b6001600160a01b0381166106c057604051631e4fbdf760e01b81525f60048201526024015b60405180910390fd5b6106c9816108dd565b50565b336106fe7f9016d09d72d40fdae2fd8ceac6b6234c7706214fd39c1cd1e609a0528c199300546001600160a01b031690565b6001600160a01b0316146104485760405163118cdaa760e01b81523360048201526024016106b7565b306001600160a01b037f00000000000000000000000000000000000000000000000000000000000000001614806107ad57507f00000000000000000000000000000000000000000000000000000000000000006001600160a01b03166107a15f516020610f9a5f395f51905f52546001600160a01b031690565b6001600160a01b031614155b156104485760405163703e46dd60e11b815260040160405180910390fd5b6106c96106cc565b816001600160a01b03166352d1902d6040518163ffffffff1660e01b8152600401602060405180830381865afa92505050801561082d575060408051601f3d908101601f1916820190925261082a91810190610f6c565b60015b61085557604051634c9c8ce360e01b81526001600160a01b03831660048201526024016106b7565b5f516020610f9a5f395f51905f52811461088557604051632a87526960e21b8152600481018290526024016106b7565b61088f8383610966565b505050565b306001600160a01b037f000000000000000000000000000000000000000000000000000000000000000016146104485760405163703e46dd60e11b815260040160405180910390fd5b7f9016d09d72d40fdae2fd8ceac6b6234c7706214fd39c1cd1e609a0528c19930080546001600160a01b031981166001600160a01b03848116918217845560405192169182907f8be0079c531659141344cd1fd0a4f28419497f9722a3daafe3b4186f6b6457e0905f90a3505050565b6109556109bb565b6106c981610a04565b6104486109bb565b61096f82610a0c565b6040516001600160a01b038316907fbc7cd75a20ee27fd9adebab32041f755214dbc6bffa90cc0225b39da2e5c2d3b905f90a28051156109b35761088f8282610a6f565b61028c610ae3565b7ff0c57e16840df040f15088dc2f81fe391c3923bec73e23a9662efc9c229c6a0054600160401b900460ff1661044857604051631afcd79f60e31b815260040160405180910390fd5b6106926109bb565b806001600160a01b03163b5f03610a4157604051634c9c8ce360e01b81526001600160a01b03821660048201526024016106b7565b5f516020610f9a5f395f51905f5280546001600160a01b0319166001600160a01b0392909216919091179055565b60605f5f846001600160a01b031684604051610a8b9190610f83565b5f60405180830381855af49150503d805f8114610ac3576040519150601f19603f3d011682016040523d82523d5f602084013e610ac8565b606091505b5091509150610ad8858383610b02565b925050505b92915050565b34156104485760405163b398979f60e01b815260040160405180910390fd5b606082610b1757610b1282610b61565b610b5a565b8151158015610b2e57506001600160a01b0384163b155b15610b5757604051639996b31560e01b81526001600160a01b03851660048201526024016106b7565b50805b9392505050565b805115610b715780518082602001fd5b60405163d6bda27560e01b815260040160405180910390fd5b604051806101400160405280600a906020820280368337509192915050565b634e487b7160e01b5f52604160045260245ffd5b5f5f67ffffffffffffffff841115610bd757610bd7610ba9565b50604051601f19601f85018116603f0116810181811067ffffffffffffffff82111715610c0657610c06610ba9565b604052838152905080828401851015610c1d575f5ffd5b838360208301375f60208583010152509392505050565b5f60208284031215610c44575f5ffd5b813567ffffffffffffffff811115610c5a575f5ffd5b8201601f81018413610c6a575f5ffd5b610c7984823560208401610bbd565b949350505050565b80356001600160a01b0381168114610c97575f5ffd5b919050565b5f5f60408385031215610cad575f5ffd5b610cb683610c81565b9150602083013567ffffffffffffffff811115610cd1575f5ffd5b8301601f81018513610ce1575f5ffd5b610cf085823560208401610bbd565b9150509250929050565b610140810181835f5b600a811015610d2557815160ff16835260209283019290910190600101610d03565b50505092915050565b602081525f82518060208401528060208501604085015e5f604082850101526040601f19601f83011684010191505092915050565b5f60208284031215610d73575f5ffd5b610b5a82610c81565b5f6101408284031215610d8d575f5ffd5b8261014083011115610d9d575f5ffd5b50919050565b600181811c90821680610db757607f821691505b602082108103610d9d57634e487b7160e01b5f52602260045260245ffd5b601f82111561088f57805f5260205f20601f840160051c81016020851015610dfa5750805b601f840160051c820191505b81811015610e19575f8155600101610e06565b5050505050565b815167ffffffffffffffff811115610e3a57610e3a610ba9565b610e4e81610e488454610da3565b84610dd5565b6020601f821160018114610e80575f8315610e695750848201515b5f19600385901b1c1916600184901b178455610e19565b5f84815260208120601f198516915b82811015610eaf5787850151825560209485019460019092019101610e8f565b5084821015610ecc57868401515f19600387901b60f8161c191681555b50505050600190811b01905550565b634e487b7160e01b5f52601260045260245ffd5b5f82610efd57610efd610edb565b500490565b8082028115828204841417610add57634e487b7160e01b5f52601160045260245ffd5b634e487b7160e01b5f52603260045260245ffd5b5f82610f4757610f47610edb565b500690565b5f60208284031215610f5c575f5ffd5b813560ff81168114610b5a575f5ffd5b5f60208284031215610f7c575f5ffd5b5051919050565b5f82518060208501845e5f92019182525091905056fe360894a13ba1a3210667c828492db98dca3e2076cc3735a920a3ca505d382bbc4974206973206120676f6f6420707261637469636520746f20726f74617465207365656473206f6674656e20696e2067616d626c696e67a2646970667358221220c9de748c20aa40e1479f670d839010cd0c87a9e6dc0fc84999283dd53d0d695164736f6c634300081c0033","linkReferences":{}},"methodIdentifiers":{"UPGRADE_INTERFACE_VERSION()":"ad3cb1cc","getFlips()":"5ff7a0bd","initialize(address)":"c4d66de8","owner()":"8da5cb5b","proxiableUUID()":"52d1902d","renounceOwnership()":"715018a6","seed()":"7d94792a","seedRotation(string)":"27236822","transferOwnership(address)":"f2fde38b","upgradeToAndCall(address,bytes)":"4f1ef286","userInput(uint8[10])":"ddabf9b2"},"id":31}