{"abi":[{"type":"constructor","inputs":[],"stateMutability":"nonpayable"},{"type":"function","name":"UPGRADE_INTERFACE_VERSION","inputs":[],"outputs":[{"name":"","type":"string","internalType":"string"}],"stateMutability":"view"},{"type":"function","name":"dauphineToken","inputs":[],"outputs":[{"name":"","type":"address","internalType":"contract IERC20"}],"stateMutability":"view"},{"type":"function","name":"getFlips","inputs":[],"outputs":[{"name":"","type":"uint8[10]","internalType":"uint8[10]"}],"stateMutability":"view"},{"type":"function","name":"initialize","inputs":[{"name":"initialOwner","type":"address","internalType":"address"},{"name":"tokenAddress","type":"address","internalType":"address"}],"outputs":[],"stateMutability":"nonpayable"},{"type":"function","name":"owner","inputs":[],"outputs":[{"name":"","type":"address","internalType":"address"}],"stateMutability":"view"},{"type":"function","name":"proxiableUUID","inputs":[],"outputs":[{"name":"","type":"bytes32","internalType":"bytes32"}],"stateMutability":"view"},{"type":"function","name":"renounceOwnership","inputs":[],"outputs":[],"stateMutability":"nonpayable"},{"type":"function","name":"seed","inputs":[],"outputs":[{"name":"","type":"string","internalType":"string"}],"stateMutability":"view"},{"type":"function","name":"seedRotation","inputs":[{"name":"NewSeed","type":"string","internalType":"string"}],"outputs":[],"stateMutability":"nonpayable"},{"type":"function","name":"transferOwnership","inputs":[{"name":"newOwner","type":"address","internalType":"address"}],"outputs":[],"stateMutability":"nonpayable"},{"type":"function","name":"upgradeToAndCall","inputs":[{"name":"newImplementation","type":"address","internalType":"address"},{"name":"data","type":"bytes","internalType":"bytes"}],"outputs":[],"stateMutability":"payable"},{"type":"function","name":"userInput","inputs":[{"name":"Guesses","type":"uint8[10]","internalType":"uint8[10]"},{"name":"winner","type":"address","internalType":"address"}],"outputs":[{"name":"","type":"bool","internalType":"bool"}],"stateMutability":"nonpayable"},{"type":"event","name":"Initialized","inputs":[{"name":"version","type":"uint64","indexed":false,"internalType":"uint64"}],"anonymous":false},{"type":"event","name":"OwnershipTransferred","inputs":[{"name":"previousOwner","type":"address","indexed":true,"internalType":"address"},{"name":"newOwner","type":"address","indexed":true,"internalType":"address"}],"anonymous":false},{"type":"event","name":"Upgraded","inputs":[{"name":"implementation","type":"address","indexed":true,"internalType":"address"}],"anonymous":false},{"type":"error","name":"AddressEmptyCode","inputs":[{"name":"target","type":"address","internalType":"address"}]},{"type":"error","name":"ERC1967InvalidImplementation","inputs":[{"name":"implementation","type":"address","internalType":"address"}]},{"type":"error","name":"ERC1967NonPayable","inputs":[]},{"type":"error","name":"FailedCall","inputs":[]},{"type":"error","name":"InvalidInitialization","inputs":[]},{"type":"error","name":"NotInitializing","inputs":[]},{"type":"error","name":"OwnableInvalidOwner","inputs":[{"name":"owner","type":"address","internalType":"address"}]},{"type":"error","name":"OwnableUnauthorizedAccount","inputs":[{"name":"account","type":"address","internalType":"address"}]},{"type":"error","name":"SeedTooShort","inputs":[]},{"type":"error","name":"UUPSUnauthorizedCallContext","inputs":[]},{"type":"error","name":"UUPSUnsupportedProxiableUUID","inputs":[{"name":"slot","type":"bytes32","internalType":"bytes32"}]}],"bytecode":{"object":"0x60a060405230608052348015610013575f5ffd5b5061001c610021565b6100d3565b7ff0c57e16840df040f15088dc2f81fe391c3923bec73e23a9662efc9c229c6a00805468010000000000000000900460ff16156100715760405163f92ee8a960e01b815260040160405180910390fd5b80546001600160401b03908116146100d05780546001600160401b0319166001600160401b0390811782556040519081527fc7f505b2f371ae2175ee4913f4499e1f2633a7b5936321eed1cdaeb6115181d29060200160405180910390a15b50565b608051610f976100f95f395f8181610678015281816106a101526107e50152610f975ff3fe6080604052600436106100a5575f3560e01c80637d94792a116100625780637d94792a146101585780638448fc33146101795780638da5cb5b146101a8578063ad3cb1cc146101f8578063bbf2564014610228578063f2fde38b14610247575f5ffd5b806327236822146100a9578063485cc955146100ca5780634f1ef286146100e957806352d1902d146100fc5780635ff7a0bd14610123578063715018a614610144575b5f5ffd5b3480156100b4575f5ffd5b506100c86100c3366004610bca565b610266565b005b3480156100d5575f5ffd5b506100c86100e4366004610c32565b6102a5565b6100c86100f7366004610c63565b6103fc565b348015610107575f5ffd5b5061011061041b565b6040519081526020015b60405180910390f35b34801561012e575f5ffd5b50610137610436565b60405161011a9190610cc1565b34801561014f575f5ffd5b506100c8610493565b348015610163575f5ffd5b5061016c6104a6565b60405161011a9190610cf5565b348015610184575f5ffd5b50610198610193366004610d2a565b610531565b604051901515815260200161011a565b3480156101b3575f5ffd5b507f9016d09d72d40fdae2fd8ceac6b6234c7706214fd39c1cd1e609a0528c199300546001600160a01b03165b6040516001600160a01b03909116815260200161011a565b348015610203575f5ffd5b5061016c604051806040016040528060058152602001640352e302e360dc1b81525081565b348015610233575f5ffd5b506001546101e0906001600160a01b031681565b348015610252575f5ffd5b506100c8610261366004610d59565b6105b7565b61026e6105f9565b80518190600a8110156102945760405163cde2a69360e01b815260040160405180910390fd5b5f61029f8482610dee565b50505050565b7ff0c57e16840df040f15088dc2f81fe391c3923bec73e23a9662efc9c229c6a008054600160401b810460ff16159067ffffffffffffffff165f811580156102ea5750825b90505f8267ffffffffffffffff1660011480156103065750303b155b905081158015610314575080155b156103325760405163f92ee8a960e01b815260040160405180910390fd5b845467ffffffffffffffff19166001178555831561035c57845460ff60401b1916600160401b1785555b61036587610654565b61036d610665565b600180546001600160a01b0319166001600160a01b03881617905560408051606081019091526037808252610f2b60208301395f906103ac9082610dee565b5083156103f357845460ff60401b19168555604051600181527fc7f505b2f371ae2175ee4913f4499e1f2633a7b5936321eed1cdaeb6115181d29060200160405180910390a15b50505050505050565b61040461066d565b61040d82610711565b6104178282610719565b5050565b5f6104246107da565b505f516020610f0b5f395f51905f5290565b61043e610b20565b506040805161014081018252600180825260208201819052918101829052606081018290526080810182905260a0810182905260c0810182905260e08101829052610100810182905261012081019190915290565b61049b6105f9565b6104a45f610823565b565b5f80546104b290610d72565b80601f01602080910402602001604051908101604052809291908181526020018280546104de90610d72565b80156105295780601f1061050057610100808354040283529160200191610529565b820191905f5260205f20905b81548152906001019060200180831161050c57829003601f168201915b505050505081565b5f5f61053b610436565b90505f5b600a8110156105a1578181600a811061055a5761055a610ea9565b602002015160ff168582600a811061057457610574610ea9565b6020020160208101906105879190610ebd565b60ff1614610599575f925050506105b1565b60010161053f565b506105ab83610893565b60019150505b92915050565b6105bf6105f9565b6001600160a01b0381166105ed57604051631e4fbdf760e01b81525f60048201526024015b60405180910390fd5b6105f681610823565b50565b3361062b7f9016d09d72d40fdae2fd8ceac6b6234c7706214fd39c1cd1e609a0528c199300546001600160a01b031690565b6001600160a01b0316146104a45760405163118cdaa760e01b81523360048201526024016105e4565b61065c6108fe565b6105f681610947565b6104a46108fe565b306001600160a01b037f00000000000000000000000000000000000000000000000000000000000000001614806106f357507f00000000000000000000000000000000000000000000000000000000000000006001600160a01b03166106e75f516020610f0b5f395f51905f52546001600160a01b031690565b6001600160a01b031614155b156104a45760405163703e46dd60e11b815260040160405180910390fd5b6105f66105f9565b816001600160a01b03166352d1902d6040518163ffffffff1660e01b8152600401602060405180830381865afa925050508015610773575060408051601f3d908101601f1916820190925261077091810190610edd565b60015b61079b57604051634c9c8ce360e01b81526001600160a01b03831660048201526024016105e4565b5f516020610f0b5f395f51905f5281146107cb57604051632a87526960e21b8152600481018290526024016105e4565b6107d5838361094f565b505050565b306001600160a01b037f000000000000000000000000000000000000000000000000000000000000000016146104a45760405163703e46dd60e11b815260040160405180910390fd5b7f9016d09d72d40fdae2fd8ceac6b6234c7706214fd39c1cd1e609a0528c19930080546001600160a01b031981166001600160a01b03848116918217845560405192169182907f8be0079c531659141344cd1fd0a4f28419497f9722a3daafe3b4186f6b6457e0905f90a3505050565b6001546040516340c10f1960e01b81526001600160a01b038381166004830152674563918244f400006024830152909116906340c10f19906044015f604051808303815f87803b1580156108e5575f5ffd5b505af11580156108f7573d5f5f3e3d5ffd5b5050505050565b7ff0c57e16840df040f15088dc2f81fe391c3923bec73e23a9662efc9c229c6a0054600160401b900460ff166104a457604051631afcd79f60e31b815260040160405180910390fd5b6105bf6108fe565b610958826109a4565b6040516001600160a01b038316907fbc7cd75a20ee27fd9adebab32041f755214dbc6bffa90cc0225b39da2e5c2d3b905f90a280511561099c576107d58282610a07565b610417610a79565b806001600160a01b03163b5f036109d957604051634c9c8ce360e01b81526001600160a01b03821660048201526024016105e4565b5f516020610f0b5f395f51905f5280546001600160a01b0319166001600160a01b0392909216919091179055565b60605f5f846001600160a01b031684604051610a239190610ef4565b5f60405180830381855af49150503d805f8114610a5b576040519150601f19603f3d011682016040523d82523d5f602084013e610a60565b606091505b5091509150610a70858383610a98565b95945050505050565b34156104a45760405163b398979f60e01b815260040160405180910390fd5b606082610aad57610aa882610af7565b610af0565b8151158015610ac457506001600160a01b0384163b155b15610aed57604051639996b31560e01b81526001600160a01b03851660048201526024016105e4565b50805b9392505050565b805115610b075780518082602001fd5b60405163d6bda27560e01b815260040160405180910390fd5b604051806101400160405280600a906020820280368337509192915050565b634e487b7160e01b5f52604160045260245ffd5b5f5f67ffffffffffffffff841115610b6d57610b6d610b3f565b50604051601f19601f85018116603f0116810181811067ffffffffffffffff82111715610b9c57610b9c610b3f565b604052838152905080828401851015610bb3575f5ffd5b838360208301375f60208583010152509392505050565b5f60208284031215610bda575f5ffd5b813567ffffffffffffffff811115610bf0575f5ffd5b8201601f81018413610c00575f5ffd5b610c0f84823560208401610b53565b949350505050565b80356001600160a01b0381168114610c2d575f5ffd5b919050565b5f5f60408385031215610c43575f5ffd5b610c4c83610c17565b9150610c5a60208401610c17565b90509250929050565b5f5f60408385031215610c74575f5ffd5b610c7d83610c17565b9150602083013567ffffffffffffffff811115610c98575f5ffd5b8301601f81018513610ca8575f5ffd5b610cb785823560208401610b53565b9150509250929050565b610140810181835f5b600a811015610cec57815160ff16835260209283019290910190600101610cca565b50505092915050565b602081525f82518060208401528060208501604085015e5f604082850101526040601f19601f83011684010191505092915050565b5f5f6101608385031215610d3c575f5ffd5b610140830184811115610d4d575f5ffd5b839250610cb781610c17565b5f60208284031215610d69575f5ffd5b610af082610c17565b600181811c90821680610d8657607f821691505b602082108103610da457634e487b7160e01b5f52602260045260245ffd5b50919050565b601f8211156107d557805f5260205f20601f840160051c81016020851015610dcf5750805b601f840160051c820191505b818110156108f7575f8155600101610ddb565b815167ffffffffffffffff811115610e0857610e08610b3f565b610e1c81610e168454610d72565b84610daa565b6020601f821160018114610e4e575f8315610e375750848201515b5f19600385901b1c1916600184901b1784556108f7565b5f84815260208120601f198516915b82811015610e7d5787850151825560209485019460019092019101610e5d565b5084821015610e9a57868401515f19600387901b60f8161c191681555b50505050600190811b01905550565b634e487b7160e01b5f52603260045260245ffd5b5f60208284031215610ecd575f5ffd5b813560ff81168114610af0575f5ffd5b5f60208284031215610eed575f5ffd5b5051919050565b5f82518060208501845e5f92019182525091905056fe360894a13ba1a3210667c828492db98dca3e2076cc3735a920a3ca505d382bbc4974206973206120676f6f6420707261637469636520746f20726f74617465207365656473206f6674656e20696e2067616d626c696e67a2646970667358221220432e210dade05850ef810614ed1a91f379c50ae0ad2854ca9741b6cf8dadbd2c64736f6c634300081c0033","linkReferences":{}},"methodIdentifiers":{"UPGRADE_INTERFACE_VERSION()":"ad3cb1cc","dauphineToken()":"bbf25640","getFlips()":"5ff7a0bd","initialize(address,address)":"485cc955","owner()":"8da5cb5b","proxiableUUID()":"52d1902d","renounceOwnership()":"715018a6","seed()":"7d94792a","seedRotation(string)":"27236822","transferOwnership(address)":"f2fde38b","upgradeToAndCall(address,bytes)":"4f1ef286","userInput(uint8[10],address)":"8448fc33"},"id":32}